{
  "contractName": "DataTrading",
  "abi": [
    {
      "inputs": [
        {
          "internalType": "uint256",
          "name": "_verificationInterval",
          "type": "uint256"
        }
      ],
      "stateMutability": "nonpayable",
      "type": "constructor"
    },
    {
      "anonymous": false,
      "inputs": [
        {
          "indexed": true,
          "internalType": "bytes32",
          "name": "txId",
          "type": "bytes32"
        },
        {
          "indexed": true,
          "internalType": "uint8",
          "name": "layerIndex",
          "type": "uint8"
        },
        {
          "indexed": false,
          "internalType": "uint256",
          "name": "timestamp",
          "type": "uint256"
        }
      ],
      "name": "DeliverySignaled",
      "type": "event"
    },
    {
      "anonymous": false,
      "inputs": [
        {
          "indexed": true,
          "internalType": "bytes32",
          "name": "txId",
          "type": "bytes32"
        },
        {
          "indexed": true,
          "internalType": "uint8",
          "name": "layerIndex",
          "type": "uint8"
        }
      ],
      "name": "LayerDeliveryConfirmed",
      "type": "event"
    },
    {
      "anonymous": false,
      "inputs": [
        {
          "indexed": true,
          "internalType": "bytes32",
          "name": "txId",
          "type": "bytes32"
        },
        {
          "indexed": false,
          "internalType": "uint8",
          "name": "layerIndex",
          "type": "uint8"
        },
        {
          "indexed": false,
          "internalType": "bytes32",
          "name": "dataHash",
          "type": "bytes32"
        }
      ],
      "name": "LayerInfoRegistered",
      "type": "event"
    },
    {
      "anonymous": false,
      "inputs": [
        {
          "indexed": true,
          "internalType": "bytes32",
          "name": "txId",
          "type": "bytes32"
        },
        {
          "indexed": true,
          "internalType": "uint8",
          "name": "layerIndex",
          "type": "uint8"
        }
      ],
      "name": "LayerVerificationConfirmed",
      "type": "event"
    },
    {
      "anonymous": false,
      "inputs": [
        {
          "indexed": true,
          "internalType": "bytes32",
          "name": "txId",
          "type": "bytes32"
        },
        {
          "indexed": false,
          "internalType": "string",
          "name": "reason",
          "type": "string"
        }
      ],
      "name": "TransactionCancelled",
      "type": "event"
    },
    {
      "anonymous": false,
      "inputs": [
        {
          "indexed": true,
          "internalType": "bytes32",
          "name": "txId",
          "type": "bytes32"
        }
      ],
      "name": "TransactionCompleted",
      "type": "event"
    },
    {
      "anonymous": false,
      "inputs": [
        {
          "indexed": true,
          "internalType": "bytes32",
          "name": "txId",
          "type": "bytes32"
        },
        {
          "indexed": false,
          "internalType": "string",
          "name": "dataId",
          "type": "string"
        },
        {
          "indexed": true,
          "internalType": "address",
          "name": "seller",
          "type": "address"
        },
        {
          "indexed": true,
          "internalType": "address",
          "name": "buyer",
          "type": "address"
        }
      ],
      "name": "TransactionCreated",
      "type": "event"
    },
    {
      "anonymous": false,
      "inputs": [
        {
          "indexed": true,
          "internalType": "bytes32",
          "name": "txId",
          "type": "bytes32"
        },
        {
          "indexed": false,
          "internalType": "uint256",
          "name": "t1",
          "type": "uint256"
        },
        {
          "indexed": false,
          "internalType": "uint256",
          "name": "t2",
          "type": "uint256"
        },
        {
          "indexed": false,
          "internalType": "uint256",
          "name": "t3",
          "type": "uint256"
        }
      ],
      "name": "TransactionParamsSet",
      "type": "event"
    },
    {
      "inputs": [
        {
          "internalType": "bytes32",
          "name": "",
          "type": "bytes32"
        }
      ],
      "name": "transactions",
      "outputs": [
        {
          "internalType": "string",
          "name": "dataId",
          "type": "string"
        },
        {
          "internalType": "address payable",
          "name": "seller",
          "type": "address"
        },
        {
          "internalType": "address payable",
          "name": "buyer",
          "type": "address"
        },
        {
          "internalType": "enum DataTrading.TxStatus",
          "name": "status",
          "type": "uint8"
        },
        {
          "internalType": "uint256",
          "name": "t1",
          "type": "uint256"
        },
        {
          "internalType": "uint256",
          "name": "t2",
          "type": "uint256"
        },
        {
          "internalType": "uint256",
          "name": "t3",
          "type": "uint256"
        },
        {
          "internalType": "bytes32",
          "name": "h1",
          "type": "bytes32"
        },
        {
          "internalType": "bytes32",
          "name": "h2",
          "type": "bytes32"
        },
        {
          "internalType": "bytes32",
          "name": "h3",
          "type": "bytes32"
        }
      ],
      "stateMutability": "view",
      "type": "function",
      "constant": true
    },
    {
      "inputs": [],
      "name": "verificationInterval",
      "outputs": [
        {
          "internalType": "uint256",
          "name": "",
          "type": "uint256"
        }
      ],
      "stateMutability": "view",
      "type": "function",
      "constant": true
    },
    {
      "inputs": [
        {
          "internalType": "string",
          "name": "_dataId",
          "type": "string"
        },
        {
          "internalType": "address",
          "name": "_buyer",
          "type": "address"
        }
      ],
      "name": "createTransaction",
      "outputs": [
        {
          "internalType": "bytes32",
          "name": "txId",
          "type": "bytes32"
        }
      ],
      "stateMutability": "nonpayable",
      "type": "function"
    },
    {
      "inputs": [
        {
          "internalType": "bytes32",
          "name": "txId",
          "type": "bytes32"
        },
        {
          "internalType": "uint256",
          "name": "_t1",
          "type": "uint256"
        },
        {
          "internalType": "uint256",
          "name": "_t2",
          "type": "uint256"
        },
        {
          "internalType": "uint256",
          "name": "_t3",
          "type": "uint256"
        },
        {
          "internalType": "bytes32",
          "name": "_h1",
          "type": "bytes32"
        },
        {
          "internalType": "bytes32",
          "name": "_h2",
          "type": "bytes32"
        },
        {
          "internalType": "bytes32",
          "name": "_h3",
          "type": "bytes32"
        }
      ],
      "name": "setTransactionParams",
      "outputs": [],
      "stateMutability": "nonpayable",
      "type": "function"
    },
    {
      "inputs": [
        {
          "internalType": "bytes32",
          "name": "txId",
          "type": "bytes32"
        },
        {
          "internalType": "uint8",
          "name": "layerIndex",
          "type": "uint8"
        },
        {
          "internalType": "bytes32",
          "name": "commitmentPlaceholder",
          "type": "bytes32"
        },
        {
          "internalType": "bytes32",
          "name": "dataHash",
          "type": "bytes32"
        }
      ],
      "name": "registerLayerInfo",
      "outputs": [],
      "stateMutability": "nonpayable",
      "type": "function"
    },
    {
      "inputs": [
        {
          "internalType": "bytes32",
          "name": "txId",
          "type": "bytes32"
        },
        {
          "internalType": "uint8",
          "name": "layerIndex",
          "type": "uint8"
        }
      ],
      "name": "signalDelivery",
      "outputs": [],
      "stateMutability": "nonpayable",
      "type": "function"
    },
    {
      "inputs": [
        {
          "internalType": "bytes32",
          "name": "txId",
          "type": "bytes32"
        },
        {
          "internalType": "uint8",
          "name": "layerIndex",
          "type": "uint8"
        }
      ],
      "name": "confirmDelivery",
      "outputs": [],
      "stateMutability": "nonpayable",
      "type": "function"
    },
    {
      "inputs": [
        {
          "internalType": "bytes32",
          "name": "txId",
          "type": "bytes32"
        },
        {
          "internalType": "uint8",
          "name": "layerIndex",
          "type": "uint8"
        }
      ],
      "name": "confirmVerification",
      "outputs": [],
      "stateMutability": "nonpayable",
      "type": "function"
    },
    {
      "inputs": [
        {
          "internalType": "bytes32",
          "name": "txId",
          "type": "bytes32"
        },
        {
          "internalType": "string",
          "name": "reason",
          "type": "string"
        }
      ],
      "name": "cancelTransaction",
      "outputs": [],
      "stateMutability": "nonpayable",
      "type": "function"
    },
    {
      "inputs": [
        {
          "internalType": "bytes32",
          "name": "txId",
          "type": "bytes32"
        }
      ],
      "name": "getTransactionStatus",
      "outputs": [
        {
          "internalType": "enum DataTrading.TxStatus",
          "name": "",
          "type": "uint8"
        }
      ],
      "stateMutability": "view",
      "type": "function",
      "constant": true
    },
    {
      "inputs": [
        {
          "internalType": "bytes32",
          "name": "txId",
          "type": "bytes32"
        }
      ],
      "name": "getTransactionHTLCParams",
      "outputs": [
        {
          "internalType": "uint256",
          "name": "",
          "type": "uint256"
        },
        {
          "internalType": "uint256",
          "name": "",
          "type": "uint256"
        },
        {
          "internalType": "uint256",
          "name": "",
          "type": "uint256"
        },
        {
          "internalType": "bytes32",
          "name": "",
          "type": "bytes32"
        },
        {
          "internalType": "bytes32",
          "name": "",
          "type": "bytes32"
        },
        {
          "internalType": "bytes32",
          "name": "",
          "type": "bytes32"
        }
      ],
      "stateMutability": "view",
      "type": "function",
      "constant": true
    },
    {
      "inputs": [
        {
          "internalType": "bytes32",
          "name": "txId",
          "type": "bytes32"
        },
        {
          "internalType": "uint8",
          "name": "layerIndex",
          "type": "uint8"
        }
      ],
      "name": "getLayerDetails",
      "outputs": [
        {
          "internalType": "bytes32",
          "name": "commitment",
          "type": "bytes32"
        },
        {
          "internalType": "bytes32",
          "name": "dataHash",
          "type": "bytes32"
        },
        {
          "internalType": "bool",
          "name": "delivered",
          "type": "bool"
        },
        {
          "internalType": "bool",
          "name": "verified",
          "type": "bool"
        },
        {
          "internalType": "uint256",
          "name": "deliveryTimestamp",
          "type": "uint256"
        }
      ],
      "stateMutability": "view",
      "type": "function",
      "constant": true
    }
  ],
  "bytecode": "0x60806040523480156200001157600080fd5b50604051620035aa380380620035aa8339818101604052810190620000379190620000cb565b600081116200007d576040517f08c379a000000000000000000000000000000000000000000000000000000000815260040162000074906200015e565b60405180910390fd5b806001819055505062000180565b600080fd5b6000819050919050565b620000a58162000090565b8114620000b157600080fd5b50565b600081519050620000c5816200009a565b92915050565b600060208284031215620000e457620000e36200008b565b5b6000620000f484828501620000b4565b91505092915050565b600082825260208201905092915050565b7f44543a20565f74206d75737420626520706f7369746976650000000000000000600082015250565b600062000146601883620000fd565b915062000153826200010e565b602082019050919050565b60006020820190508181036000830152620001798162000137565b9050919050565b61341a80620001906000396000f3fe608060405234801561001057600080fd5b50600436106100b45760003560e01c8063642f2eaf11610071578063642f2eaf1461017b57806394407465146101b4578063cb897a17146101e4578063cf3989ee14610200578063eb08bbbd14610235578063f3c02cec14610265576100b4565b8063092b72ed146100b95780632204a3df146100d5578063247050dd146100f35780632953b8081461010f5780632d497f141461012b578063620021b814610147575b600080fd5b6100d360048036038101906100ce9190611ea0565b610281565b005b6100dd610590565b6040516100ea9190611f20565b60405180910390f35b61010d60048036038101906101089190612081565b610596565b005b610129600480360381019061012491906120dd565b6108b9565b005b61014560048036038101906101409190612149565b610cca565b005b610161600480360381019061015c91906120dd565b610fa4565b604051610172959493929190612215565b60405180910390f35b61019560048036038101906101909190612268565b611112565b6040516101ab9a999897969594939291906123cc565b60405180910390f35b6101ce60048036038101906101c99190612268565b61123b565b6040516101db919061246f565b60405180910390f35b6101fe60048036038101906101f991906120dd565b61130d565b005b61021a60048036038101906102159190612268565b6117a6565b60405161022c9695949392919061248a565b60405180910390f35b61024f600480360381019061024a9190612529565b61189f565b60405161025c9190612585565b60405180910390f35b61027f600480360381019061027a91906120dd565b611abc565b005b8360008082815260200190815260200160002060010160009054906101000a900473ffffffffffffffffffffffffffffffffffffffff1673ffffffffffffffffffffffffffffffffffffffff163373ffffffffffffffffffffffffffffffffffffffff1614610325576040517f08c379a000000000000000000000000000000000000000000000000000000000815260040161031c906125ec565b60405180910390fd5b84600073ffffffffffffffffffffffffffffffffffffffff1660008083815260200190815260200160002060010160009054906101000a900473ffffffffffffffffffffffffffffffffffffffff1673ffffffffffffffffffffffffffffffffffffffff16036103ca576040517f08c379a00000000000000000000000000000000000000000000000000000000081526004016103c190612658565b60405180910390fd5b60038560ff1610610410576040517f08c379a0000000000000000000000000000000000000000000000000000000008152600401610407906126c4565b60405180910390fd5b600080600088815260200190815260200160002090506001600581111561043a57610439612355565b5b8160020160149054906101000a900460ff16600581111561045e5761045d612355565b5b1461049e576040517f08c379a000000000000000000000000000000000000000000000000000000000815260040161049590612730565b60405180910390fd5b6000801b816009018760ff16600381106104bb576104ba612750565b5b600402016001015414610503576040517f08c379a00000000000000000000000000000000000000000000000000000000081526004016104fa906127f1565b60405180910390fd5b84816009018760ff166003811061051d5761051c612750565b5b600402016000018190555083816009018760ff166003811061054257610541612750565b5b6004020160010181905550867f34fc0b80db342ef315c8d7186f365d86f5d435995ae9cd6ebfcc36a6134933ad878660405161057f929190612820565b60405180910390a250505050505050565b60015481565b81600073ffffffffffffffffffffffffffffffffffffffff1660008083815260200190815260200160002060010160009054906101000a900473ffffffffffffffffffffffffffffffffffffffff1673ffffffffffffffffffffffffffffffffffffffff160361063b576040517f08c379a000000000000000000000000000000000000000000000000000000000815260040161063290612658565b60405180910390fd5b60008084815260200190815260200160002060010160009054906101000a900473ffffffffffffffffffffffffffffffffffffffff1673ffffffffffffffffffffffffffffffffffffffff163373ffffffffffffffffffffffffffffffffffffffff16148061070a575060008084815260200190815260200160002060020160009054906101000a900473ffffffffffffffffffffffffffffffffffffffff1673ffffffffffffffffffffffffffffffffffffffff163373ffffffffffffffffffffffffffffffffffffffff16145b610749576040517f08c379a000000000000000000000000000000000000000000000000000000000815260040161074090612895565b60405180910390fd5b600080600085815260200190815260200160002090506004600581111561077357610772612355565b5b8160020160149054906101000a900460ff16600581111561079757610796612355565b5b106107d7576040517f08c379a00000000000000000000000000000000000000000000000000000000081526004016107ce90612901565b60405180910390fd5b6005808111156107ea576107e9612355565b5b8160020160149054906101000a900460ff16600581111561080e5761080d612355565b5b0361084e576040517f08c379a00000000000000000000000000000000000000000000000000000000081526004016108459061296d565b60405180910390fd5b60058160020160146101000a81548160ff0219169083600581111561087657610875612355565b5b0217905550837f0ba82a1416a0c1a9ab45b4629703d36f7efbf7a46521496a42e4fa653c0ce21d846040516108ab919061298d565b60405180910390a250505050565b8160008082815260200190815260200160002060010160009054906101000a900473ffffffffffffffffffffffffffffffffffffffff1673ffffffffffffffffffffffffffffffffffffffff163373ffffffffffffffffffffffffffffffffffffffff161461095d576040517f08c379a0000000000000000000000000000000000000000000000000000000008152600401610954906125ec565b60405180910390fd5b82600073ffffffffffffffffffffffffffffffffffffffff1660008083815260200190815260200160002060010160009054906101000a900473ffffffffffffffffffffffffffffffffffffffff1673ffffffffffffffffffffffffffffffffffffffff1603610a02576040517f08c379a00000000000000000000000000000000000000000000000000000000081526004016109f990612658565b60405180910390fd5b60038360ff1610610a48576040517f08c379a0000000000000000000000000000000000000000000000000000000008152600401610a3f906126c4565b60405180910390fd5b6000806000868152602001908152602001600020905060016005811115610a7257610a71612355565b5b8160020160149054906101000a900460ff166005811115610a9657610a95612355565b5b10158015610ad9575060046005811115610ab357610ab2612355565b5b8160020160149054906101000a900460ff166005811115610ad757610ad6612355565b5b105b610b18576040517f08c379a0000000000000000000000000000000000000000000000000000000008152600401610b0f906129fb565b60405180910390fd5b6000816009018560ff1660038110610b3357610b32612750565b5b600402016003015411610b7b576040517f08c379a0000000000000000000000000000000000000000000000000000000008152600401610b7290612a67565b60405180910390fd5b600154816009018560ff1660038110610b9757610b96612750565b5b6004020160030154610ba99190612ab6565b421015610beb576040517f08c379a0000000000000000000000000000000000000000000000000000000008152600401610be290612b5c565b60405180910390fd5b806009018460ff1660038110610c0457610c03612750565b5b6004020160020160009054906101000a900460ff1615610c59576040517f08c379a0000000000000000000000000000000000000000000000000000000008152600401610c5090612bc8565b60405180910390fd5b6001816009018560ff1660038110610c7457610c73612750565b5b6004020160020160006101000a81548160ff0219169083151502179055508360ff16857f82e3f4ce459d96d1fb2b42872f40dd1c1afd0268f49e1567058f4343a3f6ed2660405160405180910390a35050505050565b8660008082815260200190815260200160002060010160009054906101000a900473ffffffffffffffffffffffffffffffffffffffff1673ffffffffffffffffffffffffffffffffffffffff163373ffffffffffffffffffffffffffffffffffffffff1614610d6e576040517f08c379a0000000000000000000000000000000000000000000000000000000008152600401610d65906125ec565b60405180910390fd5b87600073ffffffffffffffffffffffffffffffffffffffff1660008083815260200190815260200160002060010160009054906101000a900473ffffffffffffffffffffffffffffffffffffffff1673ffffffffffffffffffffffffffffffffffffffff1603610e13576040517f08c379a0000000000000000000000000000000000000000000000000000000008152600401610e0a90612658565b60405180910390fd5b60008060008b8152602001908152602001600020905060006005811115610e3d57610e3c612355565b5b8160020160149054906101000a900460ff166005811115610e6157610e60612355565b5b14610ea1576040517f08c379a0000000000000000000000000000000000000000000000000000000008152600401610e9890612c5a565b60405180910390fd5b4289118015610eaf57508888115b8015610eba57508787115b610ef9576040517f08c379a0000000000000000000000000000000000000000000000000000000008152600401610ef090612cc6565b60405180910390fd5b88816003018190555087816004018190555086816005018190555085816006018190555084816007018190555083816008018190555060018160020160146101000a81548160ff02191690836005811115610f5757610f56612355565b5b0217905550897f96f93c8a883f6fbfdb2e8b0e3a062fe840fd4fe7062ac8d1c2805f1a97a07fbf8a8a8a604051610f9093929190612ce6565b60405180910390a250505050505050505050565b600080600080600086600073ffffffffffffffffffffffffffffffffffffffff1660008083815260200190815260200160002060010160009054906101000a900473ffffffffffffffffffffffffffffffffffffffff1673ffffffffffffffffffffffffffffffffffffffff1603611051576040517f08c379a000000000000000000000000000000000000000000000000000000000815260040161104890612658565b60405180910390fd5b60038760ff1610611097576040517f08c379a000000000000000000000000000000000000000000000000000000000815260040161108e906126c4565b60405180910390fd5b60008060008a81526020019081526020016000206009018860ff16600381106110c3576110c2612750565b5b600402019050806000015481600101548260020160009054906101000a900460ff168360020160019054906101000a900460ff1684600301549650965096509650965050509295509295909350565b600060205280600052604060002060009150905080600001805461113590612d4c565b80601f016020809104026020016040519081016040528092919081815260200182805461116190612d4c565b80156111ae5780601f10611183576101008083540402835291602001916111ae565b820191906000526020600020905b81548152906001019060200180831161119157829003601f168201915b5050505050908060010160009054906101000a900473ffffffffffffffffffffffffffffffffffffffff16908060020160009054906101000a900473ffffffffffffffffffffffffffffffffffffffff16908060020160149054906101000a900460ff1690806003015490806004015490806005015490806006015490806007015490806008015490508a565b600081600073ffffffffffffffffffffffffffffffffffffffff1660008083815260200190815260200160002060010160009054906101000a900473ffffffffffffffffffffffffffffffffffffffff1673ffffffffffffffffffffffffffffffffffffffff16036112e2576040517f08c379a00000000000000000000000000000000000000000000000000000000081526004016112d990612658565b60405180910390fd5b60008084815260200190815260200160002060020160149054906101000a900460ff16915050919050565b8160008082815260200190815260200160002060020160009054906101000a900473ffffffffffffffffffffffffffffffffffffffff1673ffffffffffffffffffffffffffffffffffffffff163373ffffffffffffffffffffffffffffffffffffffff16146113b1576040517f08c379a00000000000000000000000000000000000000000000000000000000081526004016113a890612dc9565b60405180910390fd5b82600073ffffffffffffffffffffffffffffffffffffffff1660008083815260200190815260200160002060010160009054906101000a900473ffffffffffffffffffffffffffffffffffffffff1673ffffffffffffffffffffffffffffffffffffffff1603611456576040517f08c379a000000000000000000000000000000000000000000000000000000000815260040161144d90612658565b60405180910390fd5b60038360ff161061149c576040517f08c379a0000000000000000000000000000000000000000000000000000000008152600401611493906126c4565b60405180910390fd5b60008060008681526020019081526020016000209050806009018460ff16600381106114cb576114ca612750565b5b6004020160020160009054906101000a900460ff1661151f576040517f08c379a000000000000000000000000000000000000000000000000000000000815260040161151690612e5b565b60405180910390fd5b806009018460ff166003811061153857611537612750565b5b6004020160020160019054906101000a900460ff161561158d576040517f08c379a000000000000000000000000000000000000000000000000000000000815260040161158490612eed565b60405180910390fd5b6001816009018560ff16600381106115a8576115a7612750565b5b6004020160020160016101000a81548160ff02191690831515021790555060008460ff1614801561160e5750600160058111156115e8576115e7612355565b5b8160020160149054906101000a900460ff16600581111561160c5761160b612355565b5b145b156116455760028160020160146101000a81548160ff0219169083600581111561163b5761163a612355565b5b021790555061176e565b60018460ff1614801561168d57506002600581111561166757611666612355565b5b8160020160149054906101000a900460ff16600581111561168b5761168a612355565b5b145b156116c45760038160020160146101000a81548160ff021916908360058111156116ba576116b9612355565b5b021790555061176d565b60028460ff1614801561170c5750600360058111156116e6576116e5612355565b5b8160020160149054906101000a900460ff16600581111561170a57611709612355565b5b145b1561176c5760048160020160146101000a81548160ff0219169083600581111561173957611738612355565b5b0217905550847fd1238eb0eed92f9cbfd48501ed52b5b7e23c342e20ada91eb01f40d199693eca60405160405180910390a25b5b5b8360ff16857fdd00a4dd40b07ed2a60aa9cd363091d0825c19903f9ce884182d89a57c7f244660405160405180910390a35050505050565b60008060008060008086600073ffffffffffffffffffffffffffffffffffffffff1660008083815260200190815260200160002060010160009054906101000a900473ffffffffffffffffffffffffffffffffffffffff1673ffffffffffffffffffffffffffffffffffffffff1603611854576040517f08c379a000000000000000000000000000000000000000000000000000000000815260040161184b90612658565b60405180910390fd5b60008060008a81526020019081526020016000209050806003015481600401548260050154836006015484600701548560080154975097509750975097509750505091939550919395565b6000823383426040516020016118b89493929190612fb2565b604051602081830303815290604052805190602001209050600073ffffffffffffffffffffffffffffffffffffffff1660008083815260200190815260200160002060010160009054906101000a900473ffffffffffffffffffffffffffffffffffffffff1673ffffffffffffffffffffffffffffffffffffffff1614611974576040517f08c379a000000000000000000000000000000000000000000000000000000000815260040161196b90613048565b60405180910390fd5b600080600083815260200190815260200160002090508381600001908161199b9190613214565b50338160010160006101000a81548173ffffffffffffffffffffffffffffffffffffffff021916908373ffffffffffffffffffffffffffffffffffffffff160217905550828160020160006101000a81548173ffffffffffffffffffffffffffffffffffffffff021916908373ffffffffffffffffffffffffffffffffffffffff16021790555060008160020160146101000a81548160ff02191690836005811115611a4a57611a49612355565b5b02179055508273ffffffffffffffffffffffffffffffffffffffff163373ffffffffffffffffffffffffffffffffffffffff16837fa1e5b7ad00beeb982a93d1dd984f729a08280ec2c35226407cd9caaf0c99a16087604051611aad919061298d565b60405180910390a45092915050565b8160008082815260200190815260200160002060010160009054906101000a900473ffffffffffffffffffffffffffffffffffffffff1673ffffffffffffffffffffffffffffffffffffffff163373ffffffffffffffffffffffffffffffffffffffff1614611b60576040517f08c379a0000000000000000000000000000000000000000000000000000000008152600401611b57906125ec565b60405180910390fd5b82600073ffffffffffffffffffffffffffffffffffffffff1660008083815260200190815260200160002060010160009054906101000a900473ffffffffffffffffffffffffffffffffffffffff1673ffffffffffffffffffffffffffffffffffffffff1603611c05576040517f08c379a0000000000000000000000000000000000000000000000000000000008152600401611bfc90612658565b60405180910390fd5b60038360ff1610611c4b576040517f08c379a0000000000000000000000000000000000000000000000000000000008152600401611c42906126c4565b60405180910390fd5b6000806000868152602001908152602001600020905060016005811115611c7557611c74612355565b5b8160020160149054906101000a900460ff166005811115611c9957611c98612355565b5b10158015611cdc575060046005811115611cb657611cb5612355565b5b8160020160149054906101000a900460ff166005811115611cda57611cd9612355565b5b105b611d1b576040517f08c379a0000000000000000000000000000000000000000000000000000000008152600401611d1290613332565b60405180910390fd5b806009018460ff1660038110611d3457611d33612750565b5b6004020160020160009054906101000a900460ff16158015611d7657506000816009018560ff1660038110611d6c57611d6b612750565b5b6004020160030154145b611db5576040517f08c379a0000000000000000000000000000000000000000000000000000000008152600401611dac906133c4565b60405180910390fd5b42816009018560ff1660038110611dcf57611dce612750565b5b60040201600301819055508360ff16857f4c03a2c3da6cb07b2316ba455ffe1111072fad50f25f0600aeeacaff68271eb742604051611e0e9190611f20565b60405180910390a35050505050565b6000604051905090565b600080fd5b600080fd5b6000819050919050565b611e4481611e31565b8114611e4f57600080fd5b50565b600081359050611e6181611e3b565b92915050565b600060ff82169050919050565b611e7d81611e67565b8114611e8857600080fd5b50565b600081359050611e9a81611e74565b92915050565b60008060008060808587031215611eba57611eb9611e27565b5b6000611ec887828801611e52565b9450506020611ed987828801611e8b565b9350506040611eea87828801611e52565b9250506060611efb87828801611e52565b91505092959194509250565b6000819050919050565b611f1a81611f07565b82525050565b6000602082019050611f356000830184611f11565b92915050565b600080fd5b600080fd5b6000601f19601f8301169050919050565b7f4e487b7100000000000000000000000000000000000000000000000000000000600052604160045260246000fd5b611f8e82611f45565b810181811067ffffffffffffffff82111715611fad57611fac611f56565b5b80604052505050565b6000611fc0611e1d565b9050611fcc8282611f85565b919050565b600067ffffffffffffffff821115611fec57611feb611f56565b5b611ff582611f45565b9050602081019050919050565b82818337600083830152505050565b600061202461201f84611fd1565b611fb6565b9050828152602081018484840111156120405761203f611f40565b5b61204b848285612002565b509392505050565b600082601f83011261206857612067611f3b565b5b8135612078848260208601612011565b91505092915050565b6000806040838503121561209857612097611e27565b5b60006120a685828601611e52565b925050602083013567ffffffffffffffff8111156120c7576120c6611e2c565b5b6120d385828601612053565b9150509250929050565b600080604083850312156120f4576120f3611e27565b5b600061210285828601611e52565b925050602061211385828601611e8b565b9150509250929050565b61212681611f07565b811461213157600080fd5b50565b6000813590506121438161211d565b92915050565b600080600080600080600060e0888a03121561216857612167611e27565b5b60006121768a828b01611e52565b97505060206121878a828b01612134565b96505060406121988a828b01612134565b95505060606121a98a828b01612134565b94505060806121ba8a828b01611e52565b93505060a06121cb8a828b01611e52565b92505060c06121dc8a828b01611e52565b91505092959891949750929550565b6121f481611e31565b82525050565b60008115159050919050565b61220f816121fa565b82525050565b600060a08201905061222a60008301886121eb565b61223760208301876121eb565b6122446040830186612206565b6122516060830185612206565b61225e6080830184611f11565b9695505050505050565b60006020828403121561227e5761227d611e27565b5b600061228c84828501611e52565b91505092915050565b600081519050919050565b600082825260208201905092915050565b60005b838110156122cf5780820151818401526020810190506122b4565b60008484015250505050565b60006122e682612295565b6122f081856122a0565b93506123008185602086016122b1565b61230981611f45565b840191505092915050565b600073ffffffffffffffffffffffffffffffffffffffff82169050919050565b600061233f82612314565b9050919050565b61234f81612334565b82525050565b7f4e487b7100000000000000000000000000000000000000000000000000000000600052602160045260246000fd5b6006811061239557612394612355565b5b50565b60008190506123a682612384565b919050565b60006123b682612398565b9050919050565b6123c6816123ab565b82525050565b60006101408201905081810360008301526123e7818d6122db565b90506123f6602083018c612346565b612403604083018b612346565b612410606083018a6123bd565b61241d6080830189611f11565b61242a60a0830188611f11565b61243760c0830187611f11565b61244460e08301866121eb565b6124526101008301856121eb565b6124606101208301846121eb565b9b9a5050505050505050505050565b600060208201905061248460008301846123bd565b92915050565b600060c08201905061249f6000830189611f11565b6124ac6020830188611f11565b6124b96040830187611f11565b6124c660608301866121eb565b6124d360808301856121eb565b6124e060a08301846121eb565b979650505050505050565b60006124f682612314565b9050919050565b612506816124eb565b811461251157600080fd5b50565b600081359050612523816124fd565b92915050565b600080604083850312156125405761253f611e27565b5b600083013567ffffffffffffffff81111561255e5761255d611e2c565b5b61256a85828601612053565b925050602061257b85828601612514565b9150509250929050565b600060208201905061259a60008301846121eb565b92915050565b7f44543a204f6e6c792073656c6c65720000000000000000000000000000000000600082015250565b60006125d6600f836122a0565b91506125e1826125a0565b602082019050919050565b60006020820190508181036000830152612605816125c9565b9050919050565b7f44543a205478206d697373696e67000000000000000000000000000000000000600082015250565b6000612642600e836122a0565b915061264d8261260c565b602082019050919050565b6000602082019050818103600083015261267181612635565b9050919050565b7f44543a20496e76616c6964206c6179657220696e646578000000000000000000600082015250565b60006126ae6017836122a0565b91506126b982612678565b602082019050919050565b600060208201905081810360008301526126dd816126a1565b9050919050565b7f44543a205472616e73616374696f6e206e6f7420616374697665000000000000600082015250565b600061271a601a836122a0565b9150612725826126e4565b602082019050919050565b600060208201905081810360008301526127498161270d565b9050919050565b7f4e487b7100000000000000000000000000000000000000000000000000000000600052603260045260246000fd5b7f44543a204c6179657220696e666f20616c72656164792072656769737465726560008201527f6400000000000000000000000000000000000000000000000000000000000000602082015250565b60006127db6021836122a0565b91506127e68261277f565b604082019050919050565b6000602082019050818103600083015261280a816127ce565b9050919050565b61281a81611e67565b82525050565b60006040820190506128356000830185612811565b61284260208301846121eb565b9392505050565b7f44543a204f6e6c79207061727469636970616e74730000000000000000000000600082015250565b600061287f6015836122a0565b915061288a82612849565b602082019050919050565b600060208201905081810360008301526128ae81612872565b9050919050565b7f44543a2043616e6e6f742063616e63656c20636f6d706c657465640000000000600082015250565b60006128eb601b836122a0565b91506128f6826128b5565b602082019050919050565b6000602082019050818103600083015261291a816128de565b9050919050565b7f44543a20416c72656164792063616e63656c6c65640000000000000000000000600082015250565b60006129576015836122a0565b915061296282612921565b602082019050919050565b600060208201905081810360008301526129868161294a565b9050919050565b600060208201905081810360008301526129a781846122db565b905092915050565b7f44543a20496e76616c6964207374617465000000000000000000000000000000600082015250565b60006129e56011836122a0565b91506129f0826129af565b602082019050919050565b60006020820190508181036000830152612a14816129d8565b9050919050565b7f44543a2044656c6976657279206e6f74207369676e616c656420796574000000600082015250565b6000612a51601d836122a0565b9150612a5c82612a1b565b602082019050919050565b60006020820190508181036000830152612a8081612a44565b9050919050565b7f4e487b7100000000000000000000000000000000000000000000000000000000600052601160045260246000fd5b6000612ac182611f07565b9150612acc83611f07565b9250828201905080821115612ae457612ae3612a87565b5b92915050565b7f44543a20566572696669636174696f6e20696e74657276616c206e6f7420706160008201527f7373656400000000000000000000000000000000000000000000000000000000602082015250565b6000612b466024836122a0565b9150612b5182612aea565b604082019050919050565b60006020820190508181036000830152612b7581612b39565b9050919050565b7f44543a2044656c697665727920616c726561647920636f6e6669726d65640000600082015250565b6000612bb2601e836122a0565b9150612bbd82612b7c565b602082019050919050565b60006020820190508181036000830152612be181612ba5565b9050919050565b7f44543a2043616e206f6e6c792073657420706172616d7320696e20496e69742060008201527f7374617465000000000000000000000000000000000000000000000000000000602082015250565b6000612c446025836122a0565b9150612c4f82612be8565b604082019050919050565b60006020820190508181036000830152612c7381612c37565b9050919050565b7f44543a20496e76616c69642074696d657374616d707300000000000000000000600082015250565b6000612cb06016836122a0565b9150612cbb82612c7a565b602082019050919050565b60006020820190508181036000830152612cdf81612ca3565b9050919050565b6000606082019050612cfb6000830186611f11565b612d086020830185611f11565b612d156040830184611f11565b949350505050565b7f4e487b7100000000000000000000000000000000000000000000000000000000600052602260045260246000fd5b60006002820490506001821680612d6457607f821691505b602082108103612d7757612d76612d1d565b5b50919050565b7f44543a204f6e6c79206275796572000000000000000000000000000000000000600082015250565b6000612db3600e836122a0565b9150612dbe82612d7d565b602082019050919050565b60006020820190508181036000830152612de281612da6565b9050919050565b7f44543a204c61796572206e6f74207965742064656c697665726564206279207360008201527f656c6c6572000000000000000000000000000000000000000000000000000000602082015250565b6000612e456025836122a0565b9150612e5082612de9565b604082019050919050565b60006020820190508181036000830152612e7481612e38565b9050919050565b7f44543a20566572696669636174696f6e20616c726561647920636f6e6669726d60008201527f6564000000000000000000000000000000000000000000000000000000000000602082015250565b6000612ed76022836122a0565b9150612ee282612e7b565b604082019050919050565b60006020820190508181036000830152612f0681612eca565b9050919050565b600081905092915050565b6000612f2382612295565b612f2d8185612f0d565b9350612f3d8185602086016122b1565b80840191505092915050565b60008160601b9050919050565b6000612f6182612f49565b9050919050565b6000612f7382612f56565b9050919050565b612f8b612f86826124eb565b612f68565b82525050565b6000819050919050565b612fac612fa782611f07565b612f91565b82525050565b6000612fbe8287612f18565b9150612fca8286612f7a565b601482019150612fda8285612f7a565b601482019150612fea8284612f9b565b60208201915081905095945050505050565b7f44543a20547820494420636f6c6c6973696f6e00000000000000000000000000600082015250565b60006130326013836122a0565b915061303d82612ffc565b602082019050919050565b6000602082019050818103600083015261306181613025565b9050919050565b60008190508160005260206000209050919050565b60006020601f8301049050919050565b600082821b905092915050565b6000600883026130ca7fffffffffffffffffffffffffffffffffffffffffffffffffffffffffffffffff8261308d565b6130d4868361308d565b95508019841693508086168417925050509392505050565b6000819050919050565b600061311161310c61310784611f07565b6130ec565b611f07565b9050919050565b6000819050919050565b61312b836130f6565b61313f61313782613118565b84845461309a565b825550505050565b600090565b613154613147565b61315f818484613122565b505050565b5b818110156131835761317860008261314c565b600181019050613165565b5050565b601f8211156131c85761319981613068565b6131a28461307d565b810160208510156131b1578190505b6131c56131bd8561307d565b830182613164565b50505b505050565b600082821c905092915050565b60006131eb600019846008026131cd565b1980831691505092915050565b600061320483836131da565b9150826002028217905092915050565b61321d82612295565b67ffffffffffffffff81111561323657613235611f56565b5b6132408254612d4c565b61324b828285613187565b600060209050601f83116001811461327e576000841561326c578287015190505b61327685826131f8565b8655506132de565b601f19841661328c86613068565b60005b828110156132b45784890151825560018201915060208501945060208101905061328f565b868310156132d157848901516132cd601f8916826131da565b8355505b6001600288020188555050505b505050505050565b7f44543a20496e76616c696420737461746520666f72207369676e616c696e6700600082015250565b600061331c601f836122a0565b9150613327826132e6565b602082019050919050565b6000602082019050818103600083015261334b8161330f565b9050919050565b7f44543a2044656c697665727920616c7265616479207369676e616c6564206f7260008201527f20636f6e6669726d656400000000000000000000000000000000000000000000602082015250565b60006133ae602a836122a0565b91506133b982613352565b604082019050919050565b600060208201905081810360008301526133dd816133a1565b905091905056fea2646970667358221220c01f8d2e111d6cc90f0c74d64653af1ba939181d8eb698b4174e65bef160e5ff64736f6c63430008110033",
  "immutableReferences": {},
  "source": "// SPDX-License-Identifier: MIT\r\npragma solidity ^0.8.17;\r\n\r\ncontract DataTrading {\r\n    // \r\n    enum TxStatus { Init, Active, L1_Verified, L2_Verified, Completed, Cancelled }\r\n\r\n    // \r\n    struct LayerData {\r\n        bytes32 commitment; //  ( txId)  ZKP  C_i\r\n        bytes32 dataHash;   //  SHA256  L_i\r\n        bool delivered;     // Seller  HTLC  V_t  true\r\n        bool verified;      // Buyer  delivered=true  true\r\n        uint256 deliveryTimestamp; // Seller  signalDelivery  ( V_t)\r\n    }\r\n\r\n    // \r\n    struct Transaction {\r\n        string dataId;          // \r\n        address payable seller; // \r\n        address payable buyer;  // \r\n        TxStatus status;        // \r\n        uint256 t1; uint256 t2; uint256 t3; // HTLC \r\n        bytes32 h1; bytes32 h2; bytes32 h3; // HTLC  (Keccak256(O_i))\r\n        LayerData[3] layers;    //  3 \r\n    }\r\n\r\n    //  ID (bytes32) \r\n    mapping(bytes32 => Transaction) public transactions;\r\n    //  V_t ()\r\n    uint256 public verificationInterval;\r\n\r\n    // ---  ---\r\n    event TransactionCreated(bytes32 indexed txId, string dataId, address indexed seller, address indexed buyer);\r\n    event TransactionParamsSet(bytes32 indexed txId, uint256 t1, uint256 t2, uint256 t3);\r\n    event LayerInfoRegistered(bytes32 indexed txId, uint8 layerIndex, bytes32 dataHash);\r\n    event DeliverySignaled(bytes32 indexed txId, uint8 indexed layerIndex, uint256 timestamp); // Seller \r\n    event LayerDeliveryConfirmed(bytes32 indexed txId, uint8 indexed layerIndex); // Seller  ( V_t )\r\n    event LayerVerificationConfirmed(bytes32 indexed txId, uint8 indexed layerIndex); // Buyer \r\n    event TransactionCompleted(bytes32 indexed txId);\r\n    event TransactionCancelled(bytes32 indexed txId, string reason);\r\n\r\n    // ---  ---\r\n    modifier onlySeller(bytes32 txId) { require(msg.sender == transactions[txId].seller, \"DT: Only seller\"); _; }\r\n    modifier onlyBuyer(bytes32 txId) { require(msg.sender == transactions[txId].buyer, \"DT: Only buyer\"); _; }\r\n    modifier transactionExists(bytes32 txId) { require(transactions[txId].seller != address(0), \"DT: Tx missing\"); _; }\r\n\r\n    // ---  ---\r\n    constructor(uint256 _verificationInterval) {\r\n        require(_verificationInterval > 0, \"DT: V_t must be positive\");\r\n        verificationInterval = _verificationInterval; //  V_t\r\n    }\r\n\r\n    // ---  ---\r\n\r\n    /**\r\n     * @dev Seller \r\n     * @param _dataId \r\n     * @param _buyer \r\n     * @return txId  ID (bytes32)\r\n     */\r\n    function createTransaction(string memory _dataId, address _buyer) external returns (bytes32 txId) {\r\n        // On-chain:  ID\r\n        txId = keccak256(abi.encodePacked(_dataId, msg.sender, _buyer, block.timestamp));\r\n        require(transactions[txId].seller == address(0), \"DT: Tx ID collision\");\r\n\r\n        // On-chain:  ()\r\n        Transaction storage newTx = transactions[txId];\r\n        newTx.dataId = _dataId;\r\n        newTx.seller = payable(msg.sender);\r\n        newTx.buyer = payable(_buyer);\r\n        newTx.status = TxStatus.Init;\r\n        //  0 / false\r\n\r\n        emit TransactionCreated(txId, _dataId, msg.sender, _buyer);\r\n        return txId; //  ID\r\n    }\r\n\r\n    /**\r\n     * @dev Seller  HTLC  (H1-3, T1-3)\r\n     */\r\n    function setTransactionParams(\r\n        bytes32 txId,\r\n        uint256 _t1, uint256 _t2, uint256 _t3,\r\n        bytes32 _h1, bytes32 _h2, bytes32 _h3\r\n    ) external onlySeller(txId) transactionExists(txId) {\r\n        Transaction storage tx = transactions[txId];\r\n        require(tx.status == TxStatus.Init, \"DT: Can only set params in Init state\");\r\n        // On-chain: \r\n        require(_t1 > block.timestamp && _t2 > _t1 && _t3 > _t2, \"DT: Invalid timestamps\");\r\n\r\n        // On-chain:  HTLC \r\n        tx.t1 = _t1; tx.t2 = _t2; tx.t3 = _t3;\r\n        tx.h1 = _h1; tx.h2 = _h2; tx.h3 = _h3;\r\n        tx.status = TxStatus.Active;\r\n\r\n        emit TransactionParamsSet(txId, _t1, _t2, _t3);\r\n    }\r\n\r\n    /**\r\n     * @dev Seller  (SHA256)\r\n     * @param commitmentPlaceholder  ( txId)\r\n     * @param dataHash  SHA256 \r\n     */\r\n    function registerLayerInfo(bytes32 txId, uint8 layerIndex, bytes32 commitmentPlaceholder, bytes32 dataHash)\r\n        external onlySeller(txId) transactionExists(txId)\r\n    {\r\n        require(layerIndex < 3, \"DT: Invalid layer index\");\r\n        Transaction storage tx = transactions[txId];\r\n        require(tx.status == TxStatus.Active, \"DT: Transaction not active\");\r\n        require(tx.layers[layerIndex].dataHash == bytes32(0), \"DT: Layer info already registered\");\r\n\r\n        // On-chain: \r\n        tx.layers[layerIndex].commitment = commitmentPlaceholder;\r\n        tx.layers[layerIndex].dataHash = dataHash;\r\n\r\n        emit LayerInfoRegistered(txId, layerIndex, dataHash);\r\n    }\r\n\r\n    /**\r\n     * @dev Seller  ( V_t)\r\n     */\r\n    function signalDelivery(bytes32 txId, uint8 layerIndex)\r\n        external onlySeller(txId) transactionExists(txId)\r\n    {\r\n        require(layerIndex < 3, \"DT: Invalid layer index\");\r\n        Transaction storage tx = transactions[txId];\r\n        require(tx.status >= TxStatus.Active && tx.status < TxStatus.Completed, \"DT: Invalid state for signaling\");\r\n        require(!tx.layers[layerIndex].delivered && tx.layers[layerIndex].deliveryTimestamp == 0, \"DT: Delivery already signaled or confirmed\");\r\n\r\n        // On-chain: \r\n        tx.layers[layerIndex].deliveryTimestamp = block.timestamp;\r\n        emit DeliverySignaled(txId, layerIndex, block.timestamp);\r\n    }\r\n\r\n    /**\r\n     * @dev Seller  HTLC  ( V_t )\r\n     */\r\n    function confirmDelivery(bytes32 txId, uint8 layerIndex)\r\n        external onlySeller(txId) transactionExists(txId)\r\n    {\r\n        require(layerIndex < 3, \"DT: Invalid layer index\");\r\n        Transaction storage tx = transactions[txId];\r\n        require(tx.status >= TxStatus.Active && tx.status < TxStatus.Completed, \"DT: Invalid state\");\r\n        require(tx.layers[layerIndex].deliveryTimestamp > 0, \"DT: Delivery not signaled yet\");\r\n        // On-chain:  V_t \r\n        require(block.timestamp >= tx.layers[layerIndex].deliveryTimestamp + verificationInterval, \"DT: Verification interval not passed\");\r\n        require(!tx.layers[layerIndex].delivered, \"DT: Delivery already confirmed\");\r\n\r\n        // On-chain: \r\n        tx.layers[layerIndex].delivered = true;\r\n        emit LayerDeliveryConfirmed(txId, layerIndex);\r\n    }\r\n\r\n    /**\r\n     * @dev Buyer  Seller \r\n     */\r\n    function confirmVerification(bytes32 txId, uint8 layerIndex)\r\n        external onlyBuyer(txId) transactionExists(txId)\r\n    {\r\n        require(layerIndex < 3, \"DT: Invalid layer index\");\r\n        Transaction storage tx = transactions[txId];\r\n        // On-chain:  Seller \r\n        require(tx.layers[layerIndex].delivered, \"DT: Layer not yet delivered by seller\");\r\n        require(!tx.layers[layerIndex].verified, \"DT: Verification already confirmed\");\r\n\r\n        // On-chain: \r\n        tx.layers[layerIndex].verified = true;\r\n        if (layerIndex == 0 && tx.status == TxStatus.Active) { tx.status = TxStatus.L1_Verified; }\r\n        else if (layerIndex == 1 && tx.status == TxStatus.L1_Verified) { tx.status = TxStatus.L2_Verified; }\r\n        else if (layerIndex == 2 && tx.status == TxStatus.L2_Verified) { tx.status = TxStatus.Completed; emit TransactionCompleted(txId); }\r\n\r\n        emit LayerVerificationConfirmed(txId, layerIndex);\r\n    }\r\n\r\n    /**\r\n     * @dev Seller  Buyer  ( < Completed)\r\n     */\r\n    function cancelTransaction(bytes32 txId, string memory reason) external transactionExists(txId) {\r\n        require(msg.sender == transactions[txId].seller || msg.sender == transactions[txId].buyer, \"DT: Only participants\");\r\n        Transaction storage tx = transactions[txId];\r\n        require(tx.status < TxStatus.Completed, \"DT: Cannot cancel completed\");\r\n        require(tx.status != TxStatus.Cancelled, \"DT: Already cancelled\");\r\n        // On-chain:  Cancelled\r\n        tx.status = TxStatus.Cancelled;\r\n        emit TransactionCancelled(txId, reason);\r\n    }\r\n\r\n    // --- View Functions ---\r\n    function getTransactionStatus(bytes32 txId) public view transactionExists(txId) returns (TxStatus) { return transactions[txId].status; }\r\n    function getTransactionHTLCParams(bytes32 txId) public view transactionExists(txId) returns (uint256, uint256, uint256, bytes32, bytes32, bytes32) { Transaction storage tx = transactions[txId]; return (tx.t1, tx.t2, tx.t3, tx.h1, tx.h2, tx.h3); }\r\n    function getLayerDetails(bytes32 txId, uint8 layerIndex) public view transactionExists(txId) returns (bytes32 commitment, bytes32 dataHash, bool delivered, bool verified, uint256 deliveryTimestamp) { require(layerIndex < 3, \"DT: Invalid layer index\"); LayerData storage layer = transactions[txId].layers[layerIndex]; return (layer.commitment, layer.dataHash, layer.delivered, layer.verified, layer.deliveryTimestamp); }\r\n}\r\n",
  "sourcePath": "C:\\\\secure_data_trading\\contracts\\DataTrading.sol",
  "compiler": {
    "name": "solc",
    "version": "0.8.17+commit.8df45f5f.Emscripten.clang"
  },
  "schemaVersion": "3.4.16",
  "updatedAt": "2025-04-07T08:52:49.607Z",
  "networkType": "ethereum",
  "devdoc": {
    "kind": "dev",
    "methods": {
      "cancelTransaction(bytes32,string)": {
        "details": "Seller  Buyer  ( < Completed)"
      },
      "confirmDelivery(bytes32,uint8)": {
        "details": "Seller  HTLC  ( V_t )"
      },
      "confirmVerification(bytes32,uint8)": {
        "details": "Buyer  Seller "
      },
      "createTransaction(string,address)": {
        "details": "Seller ",
        "params": {
          "_buyer": "",
          "_dataId": ""
        },
        "returns": {
          "txId": " ID (bytes32)"
        }
      },
      "registerLayerInfo(bytes32,uint8,bytes32,bytes32)": {
        "details": "Seller  (SHA256)",
        "params": {
          "commitmentPlaceholder": " ( txId)",
          "dataHash": " SHA256 "
        }
      },
      "setTransactionParams(bytes32,uint256,uint256,uint256,bytes32,bytes32,bytes32)": {
        "details": "Seller  HTLC  (H1-3, T1-3)"
      },
      "signalDelivery(bytes32,uint8)": {
        "details": "Seller  ( V_t)"
      }
    },
    "version": 1
  },
  "userdoc": {
    "kind": "user",
    "methods": {},
    "version": 1
  }
}