{
  "contractName": "HashTimeLock",
  "abi": [
    {
      "inputs": [],
      "stateMutability": "nonpayable",
      "type": "constructor"
    },
    {
      "anonymous": false,
      "inputs": [
        {
          "indexed": true,
          "internalType": "bytes32",
          "name": "lockId",
          "type": "bytes32"
        },
        {
          "indexed": true,
          "internalType": "address",
          "name": "sender",
          "type": "address"
        },
        {
          "indexed": true,
          "internalType": "address",
          "name": "receiver",
          "type": "address"
        },
        {
          "indexed": false,
          "internalType": "uint256",
          "name": "amount",
          "type": "uint256"
        },
        {
          "indexed": false,
          "internalType": "bytes32",
          "name": "hashLock",
          "type": "bytes32"
        },
        {
          "indexed": false,
          "internalType": "uint256",
          "name": "timeLock",
          "type": "uint256"
        }
      ],
      "name": "NewLock",
      "type": "event"
    },
    {
      "anonymous": false,
      "inputs": [
        {
          "indexed": true,
          "internalType": "bytes32",
          "name": "lockId",
          "type": "bytes32"
        }
      ],
      "name": "Refunded",
      "type": "event"
    },
    {
      "anonymous": false,
      "inputs": [
        {
          "indexed": true,
          "internalType": "bytes32",
          "name": "lockId",
          "type": "bytes32"
        },
        {
          "indexed": false,
          "internalType": "bytes32",
          "name": "preimage",
          "type": "bytes32"
        }
      ],
      "name": "Withdrawn",
      "type": "event"
    },
    {
      "inputs": [
        {
          "internalType": "bytes32",
          "name": "",
          "type": "bytes32"
        }
      ],
      "name": "locks",
      "outputs": [
        {
          "internalType": "address payable",
          "name": "sender",
          "type": "address"
        },
        {
          "internalType": "address payable",
          "name": "receiver",
          "type": "address"
        },
        {
          "internalType": "uint256",
          "name": "amount",
          "type": "uint256"
        },
        {
          "internalType": "bytes32",
          "name": "hashLock",
          "type": "bytes32"
        },
        {
          "internalType": "uint256",
          "name": "timeLock",
          "type": "uint256"
        },
        {
          "internalType": "bool",
          "name": "withdrawn",
          "type": "bool"
        },
        {
          "internalType": "bool",
          "name": "refunded",
          "type": "bool"
        },
        {
          "internalType": "bytes32",
          "name": "preimage",
          "type": "bytes32"
        }
      ],
      "stateMutability": "view",
      "type": "function",
      "constant": true
    },
    {
      "inputs": [
        {
          "internalType": "address payable",
          "name": "receiver",
          "type": "address"
        },
        {
          "internalType": "bytes32",
          "name": "hashLock",
          "type": "bytes32"
        },
        {
          "internalType": "uint256",
          "name": "timeLock",
          "type": "uint256"
        }
      ],
      "name": "newLock",
      "outputs": [
        {
          "internalType": "bytes32",
          "name": "lockId",
          "type": "bytes32"
        }
      ],
      "stateMutability": "payable",
      "type": "function",
      "payable": true
    },
    {
      "inputs": [
        {
          "internalType": "bytes32",
          "name": "lockId",
          "type": "bytes32"
        },
        {
          "internalType": "bytes32",
          "name": "preimage",
          "type": "bytes32"
        }
      ],
      "name": "withdraw",
      "outputs": [
        {
          "internalType": "bool",
          "name": "success",
          "type": "bool"
        }
      ],
      "stateMutability": "nonpayable",
      "type": "function"
    },
    {
      "inputs": [
        {
          "internalType": "bytes32",
          "name": "lockId",
          "type": "bytes32"
        }
      ],
      "name": "refund",
      "outputs": [
        {
          "internalType": "bool",
          "name": "success",
          "type": "bool"
        }
      ],
      "stateMutability": "nonpayable",
      "type": "function"
    },
    {
      "inputs": [
        {
          "internalType": "bytes32",
          "name": "lockId",
          "type": "bytes32"
        }
      ],
      "name": "getLockStatus",
      "outputs": [
        {
          "internalType": "address",
          "name": "sender",
          "type": "address"
        },
        {
          "internalType": "address",
          "name": "receiver",
          "type": "address"
        },
        {
          "internalType": "uint256",
          "name": "amount",
          "type": "uint256"
        },
        {
          "internalType": "bytes32",
          "name": "hashLock",
          "type": "bytes32"
        },
        {
          "internalType": "uint256",
          "name": "timeLock",
          "type": "uint256"
        },
        {
          "internalType": "bool",
          "name": "withdrawn",
          "type": "bool"
        },
        {
          "internalType": "bool",
          "name": "refunded",
          "type": "bool"
        },
        {
          "internalType": "bytes32",
          "name": "preimage",
          "type": "bytes32"
        }
      ],
      "stateMutability": "view",
      "type": "function",
      "constant": true
    }
  ],
  "bytecode": "0x608060405234801561001057600080fd5b506114b5806100206000396000f3fe60806040526004361061004a5760003560e01c80632b933bcb1461004f57806363615149146100935780637249fbb6146100d057806384bad29a1461010d578063ed5e84371461013d575b600080fd5b34801561005b57600080fd5b5061007660048036038101906100719190610ba4565b610181565b60405161008a989796959493929190610c55565b60405180910390f35b34801561009f57600080fd5b506100ba60048036038101906100b59190610cd3565b610241565b6040516100c79190610d13565b60405180910390f35b3480156100dc57600080fd5b506100f760048036038101906100f29190610ba4565b61051a565b6040516101049190610d13565b60405180910390f35b61012760048036038101906101229190610d98565b610771565b6040516101349190610deb565b60405180910390f35b34801561014957600080fd5b50610164600480360381019061015f9190610ba4565b610ac7565b604051610178989796959493929190610e15565b60405180910390f35b60008060008060008060008060008060008b815260200190815260200160002090508060000160009054906101000a900473ffffffffffffffffffffffffffffffffffffffff168160010160009054906101000a900473ffffffffffffffffffffffffffffffffffffffff168260020154836003015484600401548560050160009054906101000a900460ff168660050160019054906101000a900460ff1687600601549850985098509850985098509850985050919395975091939597565b6000806000808581526020019081526020016000209050600073ffffffffffffffffffffffffffffffffffffffff168160000160009054906101000a900473ffffffffffffffffffffffffffffffffffffffff1673ffffffffffffffffffffffffffffffffffffffff16036102eb576040517f08c379a00000000000000000000000000000000000000000000000000000000081526004016102e290610ef0565b60405180910390fd5b8060050160009054906101000a900460ff161561033d576040517f08c379a000000000000000000000000000000000000000000000000000000000815260040161033490610f5c565b60405180910390fd5b8060050160019054906101000a900460ff161561038f576040517f08c379a000000000000000000000000000000000000000000000000000000000815260040161038690610fc8565b60405180910390fd5b8060030154836040516020016103a59190611009565b60405160208183030381529060405280519060200120146103fb576040517f08c379a00000000000000000000000000000000000000000000000000000000081526004016103f290611070565b60405180910390fd5b8060040154421115610442576040517f08c379a0000000000000000000000000000000000000000000000000000000008152600401610439906110dc565b60405180910390fd5b60018160050160006101000a81548160ff0219169083151502179055508281600601819055508060010160009054906101000a900473ffffffffffffffffffffffffffffffffffffffff1673ffffffffffffffffffffffffffffffffffffffff166108fc82600201549081150290604051600060405180830381858888f193505050501580156104d6573d6000803e3d6000fd5b50837f62388c59a1deeef5c43bd1e453c09d8fd255c31f651700e1f606339958b88b1c846040516105079190610deb565b60405180910390a2600191505092915050565b6000806000808481526020019081526020016000209050600073ffffffffffffffffffffffffffffffffffffffff168160000160009054906101000a900473ffffffffffffffffffffffffffffffffffffffff1673ffffffffffffffffffffffffffffffffffffffff16036105c4576040517f08c379a00000000000000000000000000000000000000000000000000000000081526004016105bb90610ef0565b60405180910390fd5b8060050160009054906101000a900460ff1615610616576040517f08c379a000000000000000000000000000000000000000000000000000000000815260040161060d90610f5c565b60405180910390fd5b8060050160019054906101000a900460ff1615610668576040517f08c379a000000000000000000000000000000000000000000000000000000000815260040161065f90610fc8565b60405180910390fd5b806004015442116106ae576040517f08c379a00000000000000000000000000000000000000000000000000000000081526004016106a590611148565b60405180910390fd5b60018160050160016101000a81548160ff0219169083151502179055508060000160009054906101000a900473ffffffffffffffffffffffffffffffffffffffff1673ffffffffffffffffffffffffffffffffffffffff166108fc82600201549081150290604051600060405180830381858888f19350505050158015610739573d6000803e3d6000fd5b50827ffe509803c09416b28ff3d8f690c8b0c61462a892c46d5430c8fb20abe472daf060405160405180910390a26001915050919050565b60008034116107b5576040517f08c379a00000000000000000000000000000000000000000000000000000000081526004016107ac906111b4565b60405180910390fd5b603c426107c29190611203565b8211610803576040517f08c379a00000000000000000000000000000000000000000000000000000000081526004016107fa906112a9565b60405180910390fd5b3384348585425a604051602001610820979695949392919061135b565b604051602081830303815290604052805190602001209050600073ffffffffffffffffffffffffffffffffffffffff1660008083815260200190815260200160002060000160009054906101000a900473ffffffffffffffffffffffffffffffffffffffff1673ffffffffffffffffffffffffffffffffffffffff16146108dc576040517f08c379a00000000000000000000000000000000000000000000000000000000081526004016108d390611428565b60405180910390fd5b6040518061010001604052803373ffffffffffffffffffffffffffffffffffffffff1681526020018573ffffffffffffffffffffffffffffffffffffffff1681526020013481526020018481526020018381526020016000151581526020016000151581526020016000801b81525060008083815260200190815260200160002060008201518160000160006101000a81548173ffffffffffffffffffffffffffffffffffffffff021916908373ffffffffffffffffffffffffffffffffffffffff16021790555060208201518160010160006101000a81548173ffffffffffffffffffffffffffffffffffffffff021916908373ffffffffffffffffffffffffffffffffffffffff16021790555060408201518160020155606082015181600301556080820151816004015560a08201518160050160006101000a81548160ff02191690831515021790555060c08201518160050160016101000a81548160ff02191690831515021790555060e082015181600601559050508373ffffffffffffffffffffffffffffffffffffffff163373ffffffffffffffffffffffffffffffffffffffff16827f5e2788d8fe32b107c0ee63b33f05b4fa324718b7410c485dcfab1046db366d52348787604051610ab893929190611448565b60405180910390a49392505050565b60006020528060005260406000206000915090508060000160009054906101000a900473ffffffffffffffffffffffffffffffffffffffff16908060010160009054906101000a900473ffffffffffffffffffffffffffffffffffffffff16908060020154908060030154908060040154908060050160009054906101000a900460ff16908060050160019054906101000a900460ff16908060060154905088565b600080fd5b6000819050919050565b610b8181610b6e565b8114610b8c57600080fd5b50565b600081359050610b9e81610b78565b92915050565b600060208284031215610bba57610bb9610b69565b5b6000610bc884828501610b8f565b91505092915050565b600073ffffffffffffffffffffffffffffffffffffffff82169050919050565b6000610bfc82610bd1565b9050919050565b610c0c81610bf1565b82525050565b6000819050919050565b610c2581610c12565b82525050565b610c3481610b6e565b82525050565b60008115159050919050565b610c4f81610c3a565b82525050565b600061010082019050610c6b600083018b610c03565b610c78602083018a610c03565b610c856040830189610c1c565b610c926060830188610c2b565b610c9f6080830187610c1c565b610cac60a0830186610c46565b610cb960c0830185610c46565b610cc660e0830184610c2b565b9998505050505050505050565b60008060408385031215610cea57610ce9610b69565b5b6000610cf885828601610b8f565b9250506020610d0985828601610b8f565b9150509250929050565b6000602082019050610d286000830184610c46565b92915050565b6000610d3982610bd1565b9050919050565b610d4981610d2e565b8114610d5457600080fd5b50565b600081359050610d6681610d40565b92915050565b610d7581610c12565b8114610d8057600080fd5b50565b600081359050610d9281610d6c565b92915050565b600080600060608486031215610db157610db0610b69565b5b6000610dbf86828701610d57565b9350506020610dd086828701610b8f565b9250506040610de186828701610d83565b9150509250925092565b6000602082019050610e006000830184610c2b565b92915050565b610e0f81610d2e565b82525050565b600061010082019050610e2b600083018b610e06565b610e38602083018a610e06565b610e456040830189610c1c565b610e526060830188610c2b565b610e5f6080830187610c1c565b610e6c60a0830186610c46565b610e7960c0830185610c46565b610e8660e0830184610c2b565b9998505050505050505050565b600082825260208201905092915050565b7f48544c433a204c6f636b20646f6573206e6f7420657869737400000000000000600082015250565b6000610eda601983610e93565b9150610ee582610ea4565b602082019050919050565b60006020820190508181036000830152610f0981610ecd565b9050919050565b7f48544c433a20416c72656164792077697468647261776e000000000000000000600082015250565b6000610f46601783610e93565b9150610f5182610f10565b602082019050919050565b60006020820190508181036000830152610f7581610f39565b9050919050565b7f48544c433a20416c726561647920726566756e64656400000000000000000000600082015250565b6000610fb2601683610e93565b9150610fbd82610f7c565b602082019050919050565b60006020820190508181036000830152610fe181610fa5565b9050919050565b6000819050919050565b611003610ffe82610b6e565b610fe8565b82525050565b60006110158284610ff2565b60208201915081905092915050565b7f48544c433a20496e76616c696420707265696d61676500000000000000000000600082015250565b600061105a601683610e93565b915061106582611024565b602082019050919050565b600060208201905081810360008301526110898161104d565b9050919050565b7f48544c433a2054696d656c6f636b206578706972656400000000000000000000600082015250565b60006110c6601683610e93565b91506110d182611090565b602082019050919050565b600060208201905081810360008301526110f5816110b9565b9050919050565b7f48544c433a2054696d656c6f636b206e6f742065787069726564207965740000600082015250565b6000611132601e83610e93565b915061113d826110fc565b602082019050919050565b6000602082019050818103600083015261116181611125565b9050919050565b7f48544c433a20416d6f756e74206d757374206265203e20300000000000000000600082015250565b600061119e601883610e93565b91506111a982611168565b602082019050919050565b600060208201905081810360008301526111cd81611191565b9050919050565b7f4e487b7100000000000000000000000000000000000000000000000000000000600052601160045260246000fd5b600061120e82610c12565b915061121983610c12565b9250828201905080821115611231576112306111d4565b5b92915050565b7f48544c433a2054696d656c6f636b206d75737420626520696e2074686520667560008201527f7475726500000000000000000000000000000000000000000000000000000000602082015250565b6000611293602483610e93565b915061129e82611237565b604082019050919050565b600060208201905081810360008301526112c281611286565b9050919050565b60008160601b9050919050565b60006112e1826112c9565b9050919050565b60006112f3826112d6565b9050919050565b61130b61130682610bf1565b6112e8565b82525050565b600061131c826112d6565b9050919050565b61133461132f82610d2e565b611311565b82525050565b6000819050919050565b61135561135082610c12565b61133a565b82525050565b6000611367828a6112fa565b6014820191506113778289611323565b6014820191506113878288611344565b6020820191506113978287610ff2565b6020820191506113a78286611344565b6020820191506113b78285611344565b6020820191506113c78284611344565b60208201915081905098975050505050505050565b7f48544c433a204c6f636b20616c72656164792065786973747300000000000000600082015250565b6000611412601983610e93565b915061141d826113dc565b602082019050919050565b6000602082019050818103600083015261144181611405565b9050919050565b600060608201905061145d6000830186610c1c565b61146a6020830185610c2b565b6114776040830184610c1c565b94935050505056fea2646970667358221220dff7448b9b2046e97a2ec10611bfcdac5f4179adcc73aa59f69dae55ae5c06a464736f6c63430008110033",
  "immutableReferences": {},
  "source": "// SPDX-License-Identifier: MIT\r\npragma solidity ^0.8.17;\r\n\r\n// Standard Hash Time Locked Contract (Final Version)\r\ncontract HashTimeLock {\r\n\r\n    struct Lock { // Struct now has 8 members\r\n        address payable sender;\r\n        address payable receiver;\r\n        uint256 amount;\r\n        bytes32 hashLock; // Keccak256(preimage)\r\n        uint256 timeLock; // Absolute expiration timestamp\r\n        bool withdrawn;\r\n        bool refunded;\r\n        bytes32 preimage; // Store preimage once revealed\r\n    }\r\n\r\n    mapping(bytes32 => Lock) public locks;\r\n\r\n    event NewLock(\r\n        bytes32 indexed lockId,\r\n        address indexed sender,\r\n        address indexed receiver,\r\n        uint256 amount,\r\n        bytes32 hashLock,\r\n        uint256 timeLock\r\n    );\r\n    event Withdrawn(bytes32 indexed lockId, bytes32 preimage);\r\n    event Refunded(bytes32 indexed lockId);\r\n\r\n    // Constructor is now empty\r\n    constructor() {}\r\n\r\n    function newLock(\r\n        address payable receiver,\r\n        bytes32 hashLock,\r\n        uint256 timeLock\r\n    ) external payable returns (bytes32 lockId) {\r\n        require(msg.value > 0, \"HTLC: Amount must be > 0\");\r\n        require(timeLock > block.timestamp + 60, \"HTLC: Timelock must be in the future\");\r\n\r\n        lockId = keccak256(abi.encodePacked(msg.sender, receiver, msg.value, hashLock, timeLock, block.timestamp, gasleft()));\r\n        require(locks[lockId].sender == address(0), \"HTLC: Lock already exists\");\r\n\r\n        // ***** :  8  *****\r\n        locks[lockId] = Lock({\r\n            sender: payable(msg.sender),\r\n            receiver: receiver,\r\n            amount: msg.value,\r\n            hashLock: hashLock,\r\n            timeLock: timeLock,\r\n            withdrawn: false,\r\n            refunded: false,\r\n            preimage: bytes32(0)\r\n            //  deliveryTimestamp: 0\r\n        });\r\n        // *****  *****\r\n\r\n        //  positional \r\n\r\n        emit NewLock(lockId, msg.sender, receiver, msg.value, hashLock, timeLock);\r\n        return lockId;\r\n    }\r\n\r\n    function withdraw(bytes32 lockId, bytes32 preimage) external returns (bool success) {\r\n        Lock storage lock = locks[lockId];\r\n        require(lock.sender != address(0), \"HTLC: Lock does not exist\");\r\n        require(!lock.withdrawn, \"HTLC: Already withdrawn\");\r\n        require(!lock.refunded, \"HTLC: Already refunded\");\r\n        require(keccak256(abi.encodePacked(preimage)) == lock.hashLock, \"HTLC: Invalid preimage\");\r\n        require(block.timestamp <= lock.timeLock, \"HTLC: Timelock expired\");\r\n        // V_t \r\n\r\n        lock.withdrawn = true;\r\n        lock.preimage = preimage;\r\n        lock.receiver.transfer(lock.amount);\r\n        emit Withdrawn(lockId, preimage);\r\n        return true;\r\n    }\r\n\r\n    function refund(bytes32 lockId) external returns (bool success) {\r\n        Lock storage lock = locks[lockId];\r\n        require(lock.sender != address(0), \"HTLC: Lock does not exist\");\r\n        require(!lock.withdrawn, \"HTLC: Already withdrawn\");\r\n        require(!lock.refunded, \"HTLC: Already refunded\");\r\n        require(block.timestamp > lock.timeLock, \"HTLC: Timelock not expired yet\");\r\n\r\n        lock.refunded = true;\r\n        lock.sender.transfer(lock.amount);\r\n        emit Refunded(lockId);\r\n        return true;\r\n    }\r\n\r\n    // --- View Functions ---\r\n    function getLockStatus(bytes32 lockId) public view returns (\r\n        address sender, address receiver, uint256 amount, bytes32 hashLock,\r\n        uint256 timeLock, bool withdrawn, bool refunded, bytes32 preimage\r\n        ) {\r\n        Lock storage lock = locks[lockId];\r\n        //  8 \r\n        return (lock.sender, lock.receiver, lock.amount, lock.hashLock,\r\n                lock.timeLock, lock.withdrawn, lock.refunded, lock.preimage);\r\n    }\r\n}\r\n",
  "sourcePath": "C:\\\\secure_data_trading\\contracts\\HashTimeLock.sol",
  "compiler": {
    "name": "solc",
    "version": "0.8.17+commit.8df45f5f.Emscripten.clang"
  },
  "schemaVersion": "3.4.16",
  "updatedAt": "2025-04-07T08:52:49.618Z",
  "networkType": "ethereum",
  "devdoc": {
    "kind": "dev",
    "methods": {},
    "version": 1
  },
  "userdoc": {
    "kind": "user",
    "methods": {},
    "version": 1
  }
}